{
  "contracts/Certifications.sol": {
    "Certifications": {
      "abi": [
        {
          "inputs": [
            {
              "internalType": "address",
              "name": "initialOwner",
              "type": "address"
            }
          ],
          "stateMutability": "nonpayable",
          "type": "constructor"
        },
        {
          "inputs": [
            {
              "internalType": "address",
              "name": "owner",
              "type": "address"
            }
          ],
          "name": "OwnableInvalidOwner",
          "type": "error"
        },
        {
          "inputs": [
            {
              "internalType": "address",
              "name": "account",
              "type": "address"
            }
          ],
          "name": "OwnableUnauthorizedAccount",
          "type": "error"
        },
        {
          "anonymous": false,
          "inputs": [
            {
              "indexed": false,
              "internalType": "bytes32",
              "name": "id",
              "type": "bytes32"
            },
            {
              "indexed": false,
              "internalType": "string",
              "name": "email",
              "type": "string"
            },
            {
              "indexed": false,
              "internalType": "string",
              "name": "name",
              "type": "string"
            },
            {
              "indexed": false,
              "internalType": "uint256",
              "name": "createdAt",
              "type": "uint256"
            },
            {
              "indexed": false,
              "internalType": "bool",
              "name": "isValid",
              "type": "bool"
            },
            {
              "indexed": false,
              "internalType": "string",
              "name": "universityName",
              "type": "string"
            },
            {
              "indexed": false,
              "internalType": "string",
              "name": "courseName",
              "type": "string"
            },
            {
              "indexed": false,
              "internalType": "uint16",
              "name": "hoursAmount",
              "type": "uint16"
            }
          ],
          "name": "CertificationCreatedEvent",
          "type": "event"
        },
        {
          "anonymous": false,
          "inputs": [
            {
              "indexed": false,
              "internalType": "bytes32",
              "name": "id",
              "type": "bytes32"
            },
            {
              "indexed": false,
              "internalType": "bool",
              "name": "isValid",
              "type": "bool"
            }
          ],
          "name": "CertificationUpdatedEvent",
          "type": "event"
        },
        {
          "anonymous": false,
          "inputs": [
            {
              "indexed": true,
              "internalType": "address",
              "name": "previousOwner",
              "type": "address"
            },
            {
              "indexed": true,
              "internalType": "address",
              "name": "newOwner",
              "type": "address"
            }
          ],
          "name": "OwnershipTransferred",
          "type": "event"
        },
        {
          "inputs": [
            {
              "internalType": "string",
              "name": "_name",
              "type": "string"
            },
            {
              "internalType": "string",
              "name": "_email",
              "type": "string"
            },
            {
              "internalType": "string",
              "name": "_universityName",
              "type": "string"
            },
            {
              "internalType": "string",
              "name": "_courseName",
              "type": "string"
            },
            {
              "internalType": "uint16",
              "name": "_hoursAmount",
              "type": "uint16"
            }
          ],
          "name": "createCertification",
          "outputs": [],
          "stateMutability": "nonpayable",
          "type": "function"
        },
        {
          "inputs": [
            {
              "internalType": "bytes32",
              "name": "_id",
              "type": "bytes32"
            }
          ],
          "name": "getCertification",
          "outputs": [
            {
              "internalType": "bytes32",
              "name": "id",
              "type": "bytes32"
            },
            {
              "internalType": "string",
              "name": "email",
              "type": "string"
            },
            {
              "internalType": "string",
              "name": "name",
              "type": "string"
            },
            {
              "internalType": "uint256",
              "name": "createdAt",
              "type": "uint256"
            },
            {
              "internalType": "bool",
              "name": "isValid",
              "type": "bool"
            },
            {
              "internalType": "string",
              "name": "universityName",
              "type": "string"
            },
            {
              "internalType": "string",
              "name": "courseName",
              "type": "string"
            },
            {
              "internalType": "uint16",
              "name": "hoursAmount",
              "type": "uint16"
            }
          ],
          "stateMutability": "view",
          "type": "function"
        },
        {
          "inputs": [
            {
              "internalType": "bytes32",
              "name": "_id",
              "type": "bytes32"
            }
          ],
          "name": "invalidateCertification",
          "outputs": [],
          "stateMutability": "nonpayable",
          "type": "function"
        },
        {
          "inputs": [],
          "name": "owner",
          "outputs": [
            {
              "internalType": "address",
              "name": "",
              "type": "address"
            }
          ],
          "stateMutability": "view",
          "type": "function"
        },
        {
          "inputs": [],
          "name": "renounceOwnership",
          "outputs": [],
          "stateMutability": "nonpayable",
          "type": "function"
        },
        {
          "inputs": [
            {
              "internalType": "address",
              "name": "newOwner",
              "type": "address"
            }
          ],
          "name": "transferOwnership",
          "outputs": [],
          "stateMutability": "nonpayable",
          "type": "function"
        }
      ],
      "evm": {
        "bytecode": {
          "linkReferences": {},
          "object": "608060405260006001553480156200001657600080fd5b506040516200160d3803806200160d83398181016040528101906200003c9190620001f9565b80600073ffffffffffffffffffffffffffffffffffffffff168173ffffffffffffffffffffffffffffffffffffffff1603620000b25760006040517f1e4fbdf7000000000000000000000000000000000000000000000000000000008152600401620000a991906200023c565b60405180910390fd5b620000c381620000cb60201b60201c565b505062000259565b60008060009054906101000a900473ffffffffffffffffffffffffffffffffffffffff169050816000806101000a81548173ffffffffffffffffffffffffffffffffffffffff021916908373ffffffffffffffffffffffffffffffffffffffff1602179055508173ffffffffffffffffffffffffffffffffffffffff168173ffffffffffffffffffffffffffffffffffffffff167f8be0079c531659141344cd1fd0a4f28419497f9722a3daafe3b4186f6b6457e060405160405180910390a35050565b600080fd5b600073ffffffffffffffffffffffffffffffffffffffff82169050919050565b6000620001c18262000194565b9050919050565b620001d381620001b4565b8114620001df57600080fd5b50565b600081519050620001f381620001c8565b92915050565b6000602082840312156200021257620002116200018f565b5b60006200022284828501620001e2565b91505092915050565b6200023681620001b4565b82525050565b60006020820190506200025360008301846200022b565b92915050565b6113a480620002696000396000f3fe608060405234801561001057600080fd5b50600436106100625760003560e01c806310610b7e146100675780631fb25f0714610083578063715018a6146100ba5780638ac0482a146100c45780638da5cb5b146100e0578063f2fde38b146100fe575b600080fd5b610081600480360381019061007c9190610b04565b61011a565b005b61009d60048036038101906100989190610c25565b61029a565b6040516100b1989796959493929190610d23565b60405180910390f35b6100c2610600565b005b6100de60048036038101906100d99190610c25565b610614565b005b6100e861073a565b6040516100f59190610dfe565b60405180910390f35b61011860048036038101906101139190610e45565b610763565b005b6101226107e9565b600061012c610870565b90506001600081548092919061014190610ea1565b91905055506040518061010001604052808281526020018681526020018781526020014281526020016001151581526020018581526020018481526020018361ffff16815250600260008381526020019081526020016000206000820151816000015560208201518160010190816101b991906110f5565b5060408201518160020190816101cf91906110f5565b506060820151816003015560808201518160040160006101000a81548160ff02191690831515021790555060a082015181600501908161020f91906110f5565b5060c082015181600601908161022591906110f5565b5060e08201518160070160006101000a81548161ffff021916908361ffff1602179055509050507fd040da4bc7d71ace411d2a5dd1302777d11dad39fd5dfe9229ff82ea2fb2227381868842600189898960405161028a989796959493929190610d23565b60405180910390a1505050505050565b600060608060008060608060008060001b600260008b81526020019081526020016000206000015403610302576040517f08c379a00000000000000000000000000000000000000000000000000000000081526004016102f990611213565b60405180910390fd5b6000600260008b8152602001908152602001600020604051806101000160405290816000820154815260200160018201805461033d90610f18565b80601f016020809104026020016040519081016040528092919081815260200182805461036990610f18565b80156103b65780601f1061038b576101008083540402835291602001916103b6565b820191906000526020600020905b81548152906001019060200180831161039957829003601f168201915b505050505081526020016002820180546103cf90610f18565b80601f01602080910402602001604051908101604052809291908181526020018280546103fb90610f18565b80156104485780601f1061041d57610100808354040283529160200191610448565b820191906000526020600020905b81548152906001019060200180831161042b57829003601f168201915b50505050508152602001600382015481526020016004820160009054906101000a900460ff1615151515815260200160058201805461048690610f18565b80601f01602080910402602001604051908101604052809291908181526020018280546104b290610f18565b80156104ff5780601f106104d4576101008083540402835291602001916104ff565b820191906000526020600020905b8154815290600101906020018083116104e257829003601f168201915b5050505050815260200160068201805461051890610f18565b80601f016020809104026020016040519081016040528092919081815260200182805461054490610f18565b80156105915780601f1061056657610100808354040283529160200191610591565b820191906000526020600020905b81548152906001019060200180831161057457829003601f168201915b505050505081526020016007820160009054906101000a900461ffff1661ffff1661ffff16815250509050806000015181602001518260400151836060015184608001518560a001518660c001518760e001519850985098509850985098509850985050919395975091939597565b6106086107e9565b61061260006108a4565b565b61061c6107e9565b6000801b600260008381526020019081526020016000206000015403610677576040517f08c379a000000000000000000000000000000000000000000000000000000000815260040161066e90611213565b60405180910390fd5b60006002600083815260200190815260200160002090508060040160009054906101000a900460ff166106df576040517f08c379a00000000000000000000000000000000000000000000000000000000081526004016106d69061127f565b60405180910390fd5b60008160040160006101000a81548160ff0219169083151502179055507fe1aaa9b3780425c13b317e88af58b3dba224afbf20af854c0923d10f0762524e82600060405161072e92919061129f565b60405180910390a15050565b60008060009054906101000a900473ffffffffffffffffffffffffffffffffffffffff16905090565b61076b6107e9565b600073ffffffffffffffffffffffffffffffffffffffff168173ffffffffffffffffffffffffffffffffffffffff16036107dd5760006040517f1e4fbdf70000000000000000000000000000000000000000000000000000000081526004016107d49190610dfe565b60405180910390fd5b6107e6816108a4565b50565b6107f1610968565b73ffffffffffffffffffffffffffffffffffffffff1661080f61073a565b73ffffffffffffffffffffffffffffffffffffffff161461086e57610832610968565b6040517f118cdaa70000000000000000000000000000000000000000000000000000000081526004016108659190610dfe565b60405180910390fd5b565b6000423360015460405160200161088993929190611331565b60405160208183030381529060405280519060200120905090565b60008060009054906101000a900473ffffffffffffffffffffffffffffffffffffffff169050816000806101000a81548173ffffffffffffffffffffffffffffffffffffffff021916908373ffffffffffffffffffffffffffffffffffffffff1602179055508173ffffffffffffffffffffffffffffffffffffffff168173ffffffffffffffffffffffffffffffffffffffff167f8be0079c531659141344cd1fd0a4f28419497f9722a3daafe3b4186f6b6457e060405160405180910390a35050565b600033905090565b6000604051905090565b600080fd5b600080fd5b600080fd5b600080fd5b6000601f19601f8301169050919050565b7f4e487b7100000000000000000000000000000000000000000000000000000000600052604160045260246000fd5b6109d78261098e565b810181811067ffffffffffffffff821117156109f6576109f561099f565b5b80604052505050565b6000610a09610970565b9050610a1582826109ce565b919050565b600067ffffffffffffffff821115610a3557610a3461099f565b5b610a3e8261098e565b9050602081019050919050565b82818337600083830152505050565b6000610a6d610a6884610a1a565b6109ff565b905082815260208101848484011115610a8957610a88610989565b5b610a94848285610a4b565b509392505050565b600082601f830112610ab157610ab0610984565b5b8135610ac1848260208601610a5a565b91505092915050565b600061ffff82169050919050565b610ae181610aca565b8114610aec57600080fd5b50565b600081359050610afe81610ad8565b92915050565b600080600080600060a08688031215610b2057610b1f61097a565b5b600086013567ffffffffffffffff811115610b3e57610b3d61097f565b5b610b4a88828901610a9c565b955050602086013567ffffffffffffffff811115610b6b57610b6a61097f565b5b610b7788828901610a9c565b945050604086013567ffffffffffffffff811115610b9857610b9761097f565b5b610ba488828901610a9c565b935050606086013567ffffffffffffffff811115610bc557610bc461097f565b5b610bd188828901610a9c565b9250506080610be288828901610aef565b9150509295509295909350565b6000819050919050565b610c0281610bef565b8114610c0d57600080fd5b50565b600081359050610c1f81610bf9565b92915050565b600060208284031215610c3b57610c3a61097a565b5b6000610c4984828501610c10565b91505092915050565b610c5b81610bef565b82525050565b600081519050919050565b600082825260208201905092915050565b60005b83811015610c9b578082015181840152602081019050610c80565b60008484015250505050565b6000610cb282610c61565b610cbc8185610c6c565b9350610ccc818560208601610c7d565b610cd58161098e565b840191505092915050565b6000819050919050565b610cf381610ce0565b82525050565b60008115159050919050565b610d0e81610cf9565b82525050565b610d1d81610aca565b82525050565b600061010082019050610d39600083018b610c52565b8181036020830152610d4b818a610ca7565b90508181036040830152610d5f8189610ca7565b9050610d6e6060830188610cea565b610d7b6080830187610d05565b81810360a0830152610d8d8186610ca7565b905081810360c0830152610da18185610ca7565b9050610db060e0830184610d14565b9998505050505050505050565b600073ffffffffffffffffffffffffffffffffffffffff82169050919050565b6000610de882610dbd565b9050919050565b610df881610ddd565b82525050565b6000602082019050610e136000830184610def565b92915050565b610e2281610ddd565b8114610e2d57600080fd5b50565b600081359050610e3f81610e19565b92915050565b600060208284031215610e5b57610e5a61097a565b5b6000610e6984828501610e30565b91505092915050565b7f4e487b7100000000000000000000000000000000000000000000000000000000600052601160045260246000fd5b6000610eac82610ce0565b91507fffffffffffffffffffffffffffffffffffffffffffffffffffffffffffffffff8203610ede57610edd610e72565b5b600182019050919050565b7f4e487b7100000000000000000000000000000000000000000000000000000000600052602260045260246000fd5b60006002820490506001821680610f3057607f821691505b602082108103610f4357610f42610ee9565b5b50919050565b60008190508160005260206000209050919050565b60006020601f8301049050919050565b600082821b905092915050565b600060088302610fab7fffffffffffffffffffffffffffffffffffffffffffffffffffffffffffffffff82610f6e565b610fb58683610f6e565b95508019841693508086168417925050509392505050565b6000819050919050565b6000610ff2610fed610fe884610ce0565b610fcd565b610ce0565b9050919050565b6000819050919050565b61100c83610fd7565b61102061101882610ff9565b848454610f7b565b825550505050565b600090565b611035611028565b611040818484611003565b505050565b5b818110156110645761105960008261102d565b600181019050611046565b5050565b601f8211156110a95761107a81610f49565b61108384610f5e565b81016020851015611092578190505b6110a661109e85610f5e565b830182611045565b50505b505050565b600082821c905092915050565b60006110cc600019846008026110ae565b1980831691505092915050565b60006110e583836110bb565b9150826002028217905092915050565b6110fe82610c61565b67ffffffffffffffff8111156111175761111661099f565b5b6111218254610f18565b61112c828285611068565b600060209050601f83116001811461115f576000841561114d578287015190505b61115785826110d9565b8655506111bf565b601f19841661116d86610f49565b60005b8281101561119557848901518255600182019150602085019450602081019050611170565b868310156111b257848901516111ae601f8916826110bb565b8355505b6001600288020188555050505b505050505050565b7f496e76616c696420636572746966696361746520494400000000000000000000600082015250565b60006111fd601683610c6c565b9150611208826111c7565b602082019050919050565b6000602082019050818103600083015261122c816111f0565b9050919050565b7f436572746966696361746520697320616c726561647920696e76616c69640000600082015250565b6000611269601e83610c6c565b915061127482611233565b602082019050919050565b600060208201905081810360008301526112988161125c565b9050919050565b60006040820190506112b46000830185610c52565b6112c16020830184610d05565b9392505050565b6000819050919050565b6112e36112de82610ce0565b6112c8565b82525050565b60008160601b9050919050565b6000611301826112e9565b9050919050565b6000611313826112f6565b9050919050565b61132b61132682610ddd565b611308565b82525050565b600061133d82866112d2565b60208201915061134d828561131a565b60148201915061135d82846112d2565b60208201915081905094935050505056fea2646970667358221220af410c8c11480aacf7a5addb65c090063fdc9a5c3b7d988373c33c0e1f537fbc64736f6c63430008140033",
          "opcodes": "PUSH1 0x80 PUSH1 0x40 MSTORE PUSH1 0x0 PUSH1 0x1 SSTORE CALLVALUE DUP1 ISZERO PUSH3 0x16 JUMPI PUSH1 0x0 DUP1 REVERT JUMPDEST POP PUSH1 0x40 MLOAD PUSH3 0x160D CODESIZE SUB DUP1 PUSH3 0x160D DUP4 CODECOPY DUP2 DUP2 ADD PUSH1 0x40 MSTORE DUP2 ADD SWAP1 PUSH3 0x3C SWAP2 SWAP1 PUSH3 0x1F9 JUMP JUMPDEST DUP1 PUSH1 0x0 PUSH20 0xFFFFFFFFFFFFFFFFFFFFFFFFFFFFFFFFFFFFFFFF AND DUP2 PUSH20 0xFFFFFFFFFFFFFFFFFFFFFFFFFFFFFFFFFFFFFFFF AND SUB PUSH3 0xB2 JUMPI PUSH1 0x0 PUSH1 0x40 MLOAD PUSH32 0x1E4FBDF700000000000000000000000000000000000000000000000000000000 DUP2 MSTORE PUSH1 0x4 ADD PUSH3 0xA9 SWAP2 SWAP1 PUSH3 0x23C JUMP JUMPDEST PUSH1 0x40 MLOAD DUP1 SWAP2 SUB SWAP1 REVERT JUMPDEST PUSH3 0xC3 DUP2 PUSH3 0xCB PUSH1 0x20 SHL PUSH1 0x20 SHR JUMP JUMPDEST POP POP PUSH3 0x259 JUMP JUMPDEST PUSH1 0x0 DUP1 PUSH1 0x0 SWAP1 SLOAD SWAP1 PUSH2 0x100 EXP SWAP1 DIV PUSH20 0xFFFFFFFFFFFFFFFFFFFFFFFFFFFFFFFFFFFFFFFF AND SWAP1 POP DUP2 PUSH1 0x0 DUP1 PUSH2 0x100 EXP DUP2 SLOAD DUP2 PUSH20 0xFFFFFFFFFFFFFFFFFFFFFFFFFFFFFFFFFFFFFFFF MUL NOT AND SWAP1 DUP4 PUSH20 0xFFFFFFFFFFFFFFFFFFFFFFFFFFFFFFFFFFFFFFFF AND MUL OR SWAP1 SSTORE POP DUP2 PUSH20 0xFFFFFFFFFFFFFFFFFFFFFFFFFFFFFFFFFFFFFFFF AND DUP2 PUSH20 0xFFFFFFFFFFFFFFFFFFFFFFFFFFFFFFFFFFFFFFFF AND PUSH32 0x8BE0079C531659141344CD1FD0A4F28419497F9722A3DAAFE3B4186F6B6457E0 PUSH1 0x40 MLOAD PUSH1 0x40 MLOAD DUP1 SWAP2 SUB SWAP1 LOG3 POP POP JUMP JUMPDEST PUSH1 0x0 DUP1 REVERT JUMPDEST PUSH1 0x0 PUSH20 0xFFFFFFFFFFFFFFFFFFFFFFFFFFFFFFFFFFFFFFFF DUP3 AND SWAP1 POP SWAP2 SWAP1 POP JUMP JUMPDEST PUSH1 0x0 PUSH3 0x1C1 DUP3 PUSH3 0x194 JUMP JUMPDEST SWAP1 POP SWAP2 SWAP1 POP JUMP JUMPDEST PUSH3 0x1D3 DUP2 PUSH3 0x1B4 JUMP JUMPDEST DUP2 EQ PUSH3 0x1DF JUMPI PUSH1 0x0 DUP1 REVERT JUMPDEST POP JUMP JUMPDEST PUSH1 0x0 DUP2 MLOAD SWAP1 POP PUSH3 0x1F3 DUP2 PUSH3 0x1C8 JUMP JUMPDEST SWAP3 SWAP2 POP POP JUMP JUMPDEST PUSH1 0x0 PUSH1 0x20 DUP3 DUP5 SUB SLT ISZERO PUSH3 0x212 JUMPI PUSH3 0x211 PUSH3 0x18F JUMP JUMPDEST JUMPDEST PUSH1 0x0 PUSH3 0x222 DUP5 DUP3 DUP6 ADD PUSH3 0x1E2 JUMP JUMPDEST SWAP2 POP POP SWAP3 SWAP2 POP POP JUMP JUMPDEST PUSH3 0x236 DUP2 PUSH3 0x1B4 JUMP JUMPDEST DUP3 MSTORE POP POP JUMP JUMPDEST PUSH1 0x0 PUSH1 0x20 DUP3 ADD SWAP1 POP PUSH3 0x253 PUSH1 0x0 DUP4 ADD DUP5 PUSH3 0x22B JUMP JUMPDEST SWAP3 SWAP2 POP POP JUMP JUMPDEST PUSH2 0x13A4 DUP1 PUSH3 0x269 PUSH1 0x0 CODECOPY PUSH1 0x0 RETURN INVALID PUSH1 0x80 PUSH1 0x40 MSTORE CALLVALUE DUP1 ISZERO PUSH2 0x10 JUMPI PUSH1 0x0 DUP1 REVERT JUMPDEST POP PUSH1 0x4 CALLDATASIZE LT PUSH2 0x62 JUMPI PUSH1 0x0 CALLDATALOAD PUSH1 0xE0 SHR DUP1 PUSH4 0x10610B7E EQ PUSH2 0x67 JUMPI DUP1 PUSH4 0x1FB25F07 EQ PUSH2 0x83 JUMPI DUP1 PUSH4 0x715018A6 EQ PUSH2 0xBA JUMPI DUP1 PUSH4 0x8AC0482A EQ PUSH2 0xC4 JUMPI DUP1 PUSH4 0x8DA5CB5B EQ PUSH2 0xE0 JUMPI DUP1 PUSH4 0xF2FDE38B EQ PUSH2 0xFE JUMPI JUMPDEST PUSH1 0x0 DUP1 REVERT JUMPDEST PUSH2 0x81 PUSH1 0x4 DUP1 CALLDATASIZE SUB DUP2 ADD SWAP1 PUSH2 0x7C SWAP2 SWAP1 PUSH2 0xB04 JUMP JUMPDEST PUSH2 0x11A JUMP JUMPDEST STOP JUMPDEST PUSH2 0x9D PUSH1 0x4 DUP1 CALLDATASIZE SUB DUP2 ADD SWAP1 PUSH2 0x98 SWAP2 SWAP1 PUSH2 0xC25 JUMP JUMPDEST PUSH2 0x29A JUMP JUMPDEST PUSH1 0x40 MLOAD PUSH2 0xB1 SWAP9 SWAP8 SWAP7 SWAP6 SWAP5 SWAP4 SWAP3 SWAP2 SWAP1 PUSH2 0xD23 JUMP JUMPDEST PUSH1 0x40 MLOAD DUP1 SWAP2 SUB SWAP1 RETURN JUMPDEST PUSH2 0xC2 PUSH2 0x600 JUMP JUMPDEST STOP JUMPDEST PUSH2 0xDE PUSH1 0x4 DUP1 CALLDATASIZE SUB DUP2 ADD SWAP1 PUSH2 0xD9 SWAP2 SWAP1 PUSH2 0xC25 JUMP JUMPDEST PUSH2 0x614 JUMP JUMPDEST STOP JUMPDEST PUSH2 0xE8 PUSH2 0x73A JUMP JUMPDEST PUSH1 0x40 MLOAD PUSH2 0xF5 SWAP2 SWAP1 PUSH2 0xDFE JUMP JUMPDEST PUSH1 0x40 MLOAD DUP1 SWAP2 SUB SWAP1 RETURN JUMPDEST PUSH2 0x118 PUSH1 0x4 DUP1 CALLDATASIZE SUB DUP2 ADD SWAP1 PUSH2 0x113 SWAP2 SWAP1 PUSH2 0xE45 JUMP JUMPDEST PUSH2 0x763 JUMP JUMPDEST STOP JUMPDEST PUSH2 0x122 PUSH2 0x7E9 JUMP JUMPDEST PUSH1 0x0 PUSH2 0x12C PUSH2 0x870 JUMP JUMPDEST SWAP1 POP PUSH1 0x1 PUSH1 0x0 DUP2 SLOAD DUP1 SWAP3 SWAP2 SWAP1 PUSH2 0x141 SWAP1 PUSH2 0xEA1 JUMP JUMPDEST SWAP2 SWAP1 POP SSTORE POP PUSH1 0x40 MLOAD DUP1 PUSH2 0x100 ADD PUSH1 0x40 MSTORE DUP1 DUP3 DUP2 MSTORE PUSH1 0x20 ADD DUP7 DUP2 MSTORE PUSH1 0x20 ADD DUP8 DUP2 MSTORE PUSH1 0x20 ADD TIMESTAMP DUP2 MSTORE PUSH1 0x20 ADD PUSH1 0x1 ISZERO ISZERO DUP2 MSTORE PUSH1 0x20 ADD DUP6 DUP2 MSTORE PUSH1 0x20 ADD DUP5 DUP2 MSTORE PUSH1 0x20 ADD DUP4 PUSH2 0xFFFF AND DUP2 MSTORE POP PUSH1 0x2 PUSH1 0x0 DUP4 DUP2 MSTORE PUSH1 0x20 ADD SWAP1 DUP2 MSTORE PUSH1 0x20 ADD PUSH1 0x0 KECCAK256 PUSH1 0x0 DUP3 ADD MLOAD DUP2 PUSH1 0x0 ADD SSTORE PUSH1 0x20 DUP3 ADD MLOAD DUP2 PUSH1 0x1 ADD SWAP1 DUP2 PUSH2 0x1B9 SWAP2 SWAP1 PUSH2 0x10F5 JUMP JUMPDEST POP PUSH1 0x40 DUP3 ADD MLOAD DUP2 PUSH1 0x2 ADD SWAP1 DUP2 PUSH2 0x1CF SWAP2 SWAP1 PUSH2 0x10F5 JUMP JUMPDEST POP PUSH1 0x60 DUP3 ADD MLOAD DUP2 PUSH1 0x3 ADD SSTORE PUSH1 0x80 DUP3 ADD MLOAD DUP2 PUSH1 0x4 ADD PUSH1 0x0 PUSH2 0x100 EXP DUP2 SLOAD DUP2 PUSH1 0xFF MUL NOT AND SWAP1 DUP4 ISZERO ISZERO MUL OR SWAP1 SSTORE POP PUSH1 0xA0 DUP3 ADD MLOAD DUP2 PUSH1 0x5 ADD SWAP1 DUP2 PUSH2 0x20F SWAP2 SWAP1 PUSH2 0x10F5 JUMP JUMPDEST POP PUSH1 0xC0 DUP3 ADD MLOAD DUP2 PUSH1 0x6 ADD SWAP1 DUP2 PUSH2 0x225 SWAP2 SWAP1 PUSH2 0x10F5 JUMP JUMPDEST POP PUSH1 0xE0 DUP3 ADD MLOAD DUP2 PUSH1 0x7 ADD PUSH1 0x0 PUSH2 0x100 EXP DUP2 SLOAD DUP2 PUSH2 0xFFFF MUL NOT AND SWAP1 DUP4 PUSH2 0xFFFF AND MUL OR SWAP1 SSTORE POP SWAP1 POP POP PUSH32 0xD040DA4BC7D71ACE411D2A5DD1302777D11DAD39FD5DFE9229FF82EA2FB22273 DUP2 DUP7 DUP9 TIMESTAMP PUSH1 0x1 DUP10 DUP10 DUP10 PUSH1 0x40 MLOAD PUSH2 0x28A SWAP9 SWAP8 SWAP7 SWAP6 SWAP5 SWAP4 SWAP3 SWAP2 SWAP1 PUSH2 0xD23 JUMP JUMPDEST PUSH1 0x40 MLOAD DUP1 SWAP2 SUB SWAP1 LOG1 POP POP POP POP POP POP JUMP JUMPDEST PUSH1 0x0 PUSH1 0x60 DUP1 PUSH1 0x0 DUP1 PUSH1 0x60 DUP1 PUSH1 0x0 DUP1 PUSH1 0x0 SHL PUSH1 0x2 PUSH1 0x0 DUP12 DUP2 MSTORE PUSH1 0x20 ADD SWAP1 DUP2 MSTORE PUSH1 0x20 ADD PUSH1 0x0 KECCAK256 PUSH1 0x0 ADD SLOAD SUB PUSH2 0x302 JUMPI PUSH1 0x40 MLOAD PUSH32 0x8C379A000000000000000000000000000000000000000000000000000000000 DUP2 MSTORE PUSH1 0x4 ADD PUSH2 0x2F9 SWAP1 PUSH2 0x1213 JUMP JUMPDEST PUSH1 0x40 MLOAD DUP1 SWAP2 SUB SWAP1 REVERT JUMPDEST PUSH1 0x0 PUSH1 0x2 PUSH1 0x0 DUP12 DUP2 MSTORE PUSH1 0x20 ADD SWAP1 DUP2 MSTORE PUSH1 0x20 ADD PUSH1 0x0 KECCAK256 PUSH1 0x40 MLOAD DUP1 PUSH2 0x100 ADD PUSH1 0x40 MSTORE SWAP1 DUP2 PUSH1 0x0 DUP3 ADD SLOAD DUP2 MSTORE PUSH1 0x20 ADD PUSH1 0x1 DUP3 ADD DUP1 SLOAD PUSH2 0x33D SWAP1 PUSH2 0xF18 JUMP JUMPDEST DUP1 PUSH1 0x1F ADD PUSH1 0x20 DUP1 SWAP2 DIV MUL PUSH1 0x20 ADD PUSH1 0x40 MLOAD SWAP1 DUP2 ADD PUSH1 0x40 MSTORE DUP1 SWAP3 SWAP2 SWAP1 DUP2 DUP2 MSTORE PUSH1 0x20 ADD DUP3 DUP1 SLOAD PUSH2 0x369 SWAP1 PUSH2 0xF18 JUMP JUMPDEST DUP1 ISZERO PUSH2 0x3B6 JUMPI DUP1 PUSH1 0x1F LT PUSH2 0x38B JUMPI PUSH2 0x100 DUP1 DUP4 SLOAD DIV MUL DUP4 MSTORE SWAP2 PUSH1 0x20 ADD SWAP2 PUSH2 0x3B6 JUMP JUMPDEST DUP3 ADD SWAP2 SWAP1 PUSH1 0x0 MSTORE PUSH1 0x20 PUSH1 0x0 KECCAK256 SWAP1 JUMPDEST DUP2 SLOAD DUP2 MSTORE SWAP1 PUSH1 0x1 ADD SWAP1 PUSH1 0x20 ADD DUP1 DUP4 GT PUSH2 0x399 JUMPI DUP3 SWAP1 SUB PUSH1 0x1F AND DUP3 ADD SWAP2 JUMPDEST POP POP POP POP POP DUP2 MSTORE PUSH1 0x20 ADD PUSH1 0x2 DUP3 ADD DUP1 SLOAD PUSH2 0x3CF SWAP1 PUSH2 0xF18 JUMP JUMPDEST DUP1 PUSH1 0x1F ADD PUSH1 0x20 DUP1 SWAP2 DIV MUL PUSH1 0x20 ADD PUSH1 0x40 MLOAD SWAP1 DUP2 ADD PUSH1 0x40 MSTORE DUP1 SWAP3 SWAP2 SWAP1 DUP2 DUP2 MSTORE PUSH1 0x20 ADD DUP3 DUP1 SLOAD PUSH2 0x3FB SWAP1 PUSH2 0xF18 JUMP JUMPDEST DUP1 ISZERO PUSH2 0x448 JUMPI DUP1 PUSH1 0x1F LT PUSH2 0x41D JUMPI PUSH2 0x100 DUP1 DUP4 SLOAD DIV MUL DUP4 MSTORE SWAP2 PUSH1 0x20 ADD SWAP2 PUSH2 0x448 JUMP JUMPDEST DUP3 ADD SWAP2 SWAP1 PUSH1 0x0 MSTORE PUSH1 0x20 PUSH1 0x0 KECCAK256 SWAP1 JUMPDEST DUP2 SLOAD DUP2 MSTORE SWAP1 PUSH1 0x1 ADD SWAP1 PUSH1 0x20 ADD DUP1 DUP4 GT PUSH2 0x42B JUMPI DUP3 SWAP1 SUB PUSH1 0x1F AND DUP3 ADD SWAP2 JUMPDEST POP POP POP POP POP DUP2 MSTORE PUSH1 0x20 ADD PUSH1 0x3 DUP3 ADD SLOAD DUP2 MSTORE PUSH1 0x20 ADD PUSH1 0x4 DUP3 ADD PUSH1 0x0 SWAP1 SLOAD SWAP1 PUSH2 0x100 EXP SWAP1 DIV PUSH1 0xFF AND ISZERO ISZERO ISZERO ISZERO DUP2 MSTORE PUSH1 0x20 ADD PUSH1 0x5 DUP3 ADD DUP1 SLOAD PUSH2 0x486 SWAP1 PUSH2 0xF18 JUMP JUMPDEST DUP1 PUSH1 0x1F ADD PUSH1 0x20 DUP1 SWAP2 DIV MUL PUSH1 0x20 ADD PUSH1 0x40 MLOAD SWAP1 DUP2 ADD PUSH1 0x40 MSTORE DUP1 SWAP3 SWAP2 SWAP1 DUP2 DUP2 MSTORE PUSH1 0x20 ADD DUP3 DUP1 SLOAD PUSH2 0x4B2 SWAP1 PUSH2 0xF18 JUMP JUMPDEST DUP1 ISZERO PUSH2 0x4FF JUMPI DUP1 PUSH1 0x1F LT PUSH2 0x4D4 JUMPI PUSH2 0x100 DUP1 DUP4 SLOAD DIV MUL DUP4 MSTORE SWAP2 PUSH1 0x20 ADD SWAP2 PUSH2 0x4FF JUMP JUMPDEST DUP3 ADD SWAP2 SWAP1 PUSH1 0x0 MSTORE PUSH1 0x20 PUSH1 0x0 KECCAK256 SWAP1 JUMPDEST DUP2 SLOAD DUP2 MSTORE SWAP1 PUSH1 0x1 ADD SWAP1 PUSH1 0x20 ADD DUP1 DUP4 GT PUSH2 0x4E2 JUMPI DUP3 SWAP1 SUB PUSH1 0x1F AND DUP3 ADD SWAP2 JUMPDEST POP POP POP POP POP DUP2 MSTORE PUSH1 0x20 ADD PUSH1 0x6 DUP3 ADD DUP1 SLOAD PUSH2 0x518 SWAP1 PUSH2 0xF18 JUMP JUMPDEST DUP1 PUSH1 0x1F ADD PUSH1 0x20 DUP1 SWAP2 DIV MUL PUSH1 0x20 ADD PUSH1 0x40 MLOAD SWAP1 DUP2 ADD PUSH1 0x40 MSTORE DUP1 SWAP3 SWAP2 SWAP1 DUP2 DUP2 MSTORE PUSH1 0x20 ADD DUP3 DUP1 SLOAD PUSH2 0x544 SWAP1 PUSH2 0xF18 JUMP JUMPDEST DUP1 ISZERO PUSH2 0x591 JUMPI DUP1 PUSH1 0x1F LT PUSH2 0x566 JUMPI PUSH2 0x100 DUP1 DUP4 SLOAD DIV MUL DUP4 MSTORE SWAP2 PUSH1 0x20 ADD SWAP2 PUSH2 0x591 JUMP JUMPDEST DUP3 ADD SWAP2 SWAP1 PUSH1 0x0 MSTORE PUSH1 0x20 PUSH1 0x0 KECCAK256 SWAP1 JUMPDEST DUP2 SLOAD DUP2 MSTORE SWAP1 PUSH1 0x1 ADD SWAP1 PUSH1 0x20 ADD DUP1 DUP4 GT PUSH2 0x574 JUMPI DUP3 SWAP1 SUB PUSH1 0x1F AND DUP3 ADD SWAP2 JUMPDEST POP POP POP POP POP DUP2 MSTORE PUSH1 0x20 ADD PUSH1 0x7 DUP3 ADD PUSH1 0x0 SWAP1 SLOAD SWAP1 PUSH2 0x100 EXP SWAP1 DIV PUSH2 0xFFFF AND PUSH2 0xFFFF AND PUSH2 0xFFFF AND DUP2 MSTORE POP POP SWAP1 POP DUP1 PUSH1 0x0 ADD MLOAD DUP2 PUSH1 0x20 ADD MLOAD DUP3 PUSH1 0x40 ADD MLOAD DUP4 PUSH1 0x60 ADD MLOAD DUP5 PUSH1 0x80 ADD MLOAD DUP6 PUSH1 0xA0 ADD MLOAD DUP7 PUSH1 0xC0 ADD MLOAD DUP8 PUSH1 0xE0 ADD MLOAD SWAP9 POP SWAP9 POP SWAP9 POP SWAP9 POP SWAP9 POP SWAP9 POP SWAP9 POP SWAP9 POP POP SWAP2 SWAP4 SWAP6 SWAP8 POP SWAP2 SWAP4 SWAP6 SWAP8 JUMP JUMPDEST PUSH2 0x608 PUSH2 0x7E9 JUMP JUMPDEST PUSH2 0x612 PUSH1 0x0 PUSH2 0x8A4 JUMP JUMPDEST JUMP JUMPDEST PUSH2 0x61C PUSH2 0x7E9 JUMP JUMPDEST PUSH1 0x0 DUP1 SHL PUSH1 0x2 PUSH1 0x0 DUP4 DUP2 MSTORE PUSH1 0x20 ADD SWAP1 DUP2 MSTORE PUSH1 0x20 ADD PUSH1 0x0 KECCAK256 PUSH1 0x0 ADD SLOAD SUB PUSH2 0x677 JUMPI PUSH1 0x40 MLOAD PUSH32 0x8C379A000000000000000000000000000000000000000000000000000000000 DUP2 MSTORE PUSH1 0x4 ADD PUSH2 0x66E SWAP1 PUSH2 0x1213 JUMP JUMPDEST PUSH1 0x40 MLOAD DUP1 SWAP2 SUB SWAP1 REVERT JUMPDEST PUSH1 0x0 PUSH1 0x2 PUSH1 0x0 DUP4 DUP2 MSTORE PUSH1 0x20 ADD SWAP1 DUP2 MSTORE PUSH1 0x20 ADD PUSH1 0x0 KECCAK256 SWAP1 POP DUP1 PUSH1 0x4 ADD PUSH1 0x0 SWAP1 SLOAD SWAP1 PUSH2 0x100 EXP SWAP1 DIV PUSH1 0xFF AND PUSH2 0x6DF JUMPI PUSH1 0x40 MLOAD PUSH32 0x8C379A000000000000000000000000000000000000000000000000000000000 DUP2 MSTORE PUSH1 0x4 ADD PUSH2 0x6D6 SWAP1 PUSH2 0x127F JUMP JUMPDEST PUSH1 0x40 MLOAD DUP1 SWAP2 SUB SWAP1 REVERT JUMPDEST PUSH1 0x0 DUP2 PUSH1 0x4 ADD PUSH1 0x0 PUSH2 0x100 EXP DUP2 SLOAD DUP2 PUSH1 0xFF MUL NOT AND SWAP1 DUP4 ISZERO ISZERO MUL OR SWAP1 SSTORE POP PUSH32 0xE1AAA9B3780425C13B317E88AF58B3DBA224AFBF20AF854C0923D10F0762524E DUP3 PUSH1 0x0 PUSH1 0x40 MLOAD PUSH2 0x72E SWAP3 SWAP2 SWAP1 PUSH2 0x129F JUMP JUMPDEST PUSH1 0x40 MLOAD DUP1 SWAP2 SUB SWAP1 LOG1 POP POP JUMP JUMPDEST PUSH1 0x0 DUP1 PUSH1 0x0 SWAP1 SLOAD SWAP1 PUSH2 0x100 EXP SWAP1 DIV PUSH20 0xFFFFFFFFFFFFFFFFFFFFFFFFFFFFFFFFFFFFFFFF AND SWAP1 POP SWAP1 JUMP JUMPDEST PUSH2 0x76B PUSH2 0x7E9 JUMP JUMPDEST PUSH1 0x0 PUSH20 0xFFFFFFFFFFFFFFFFFFFFFFFFFFFFFFFFFFFFFFFF AND DUP2 PUSH20 0xFFFFFFFFFFFFFFFFFFFFFFFFFFFFFFFFFFFFFFFF AND SUB PUSH2 0x7DD JUMPI PUSH1 0x0 PUSH1 0x40 MLOAD PUSH32 0x1E4FBDF700000000000000000000000000000000000000000000000000000000 DUP2 MSTORE PUSH1 0x4 ADD PUSH2 0x7D4 SWAP2 SWAP1 PUSH2 0xDFE JUMP JUMPDEST PUSH1 0x40 MLOAD DUP1 SWAP2 SUB SWAP1 REVERT JUMPDEST PUSH2 0x7E6 DUP2 PUSH2 0x8A4 JUMP JUMPDEST POP JUMP JUMPDEST PUSH2 0x7F1 PUSH2 0x968 JUMP JUMPDEST PUSH20 0xFFFFFFFFFFFFFFFFFFFFFFFFFFFFFFFFFFFFFFFF AND PUSH2 0x80F PUSH2 0x73A JUMP JUMPDEST PUSH20 0xFFFFFFFFFFFFFFFFFFFFFFFFFFFFFFFFFFFFFFFF AND EQ PUSH2 0x86E JUMPI PUSH2 0x832 PUSH2 0x968 JUMP JUMPDEST PUSH1 0x40 MLOAD PUSH32 0x118CDAA700000000000000000000000000000000000000000000000000000000 DUP2 MSTORE PUSH1 0x4 ADD PUSH2 0x865 SWAP2 SWAP1 PUSH2 0xDFE JUMP JUMPDEST PUSH1 0x40 MLOAD DUP1 SWAP2 SUB SWAP1 REVERT JUMPDEST JUMP JUMPDEST PUSH1 0x0 TIMESTAMP CALLER PUSH1 0x1 SLOAD PUSH1 0x40 MLOAD PUSH1 0x20 ADD PUSH2 0x889 SWAP4 SWAP3 SWAP2 SWAP1 PUSH2 0x1331 JUMP JUMPDEST PUSH1 0x40 MLOAD PUSH1 0x20 DUP2 DUP4 SUB SUB DUP2 MSTORE SWAP1 PUSH1 0x40 MSTORE DUP1 MLOAD SWAP1 PUSH1 0x20 ADD KECCAK256 SWAP1 POP SWAP1 JUMP JUMPDEST PUSH1 0x0 DUP1 PUSH1 0x0 SWAP1 SLOAD SWAP1 PUSH2 0x100 EXP SWAP1 DIV PUSH20 0xFFFFFFFFFFFFFFFFFFFFFFFFFFFFFFFFFFFFFFFF AND SWAP1 POP DUP2 PUSH1 0x0 DUP1 PUSH2 0x100 EXP DUP2 SLOAD DUP2 PUSH20 0xFFFFFFFFFFFFFFFFFFFFFFFFFFFFFFFFFFFFFFFF MUL NOT AND SWAP1 DUP4 PUSH20 0xFFFFFFFFFFFFFFFFFFFFFFFFFFFFFFFFFFFFFFFF AND MUL OR SWAP1 SSTORE POP DUP2 PUSH20 0xFFFFFFFFFFFFFFFFFFFFFFFFFFFFFFFFFFFFFFFF AND DUP2 PUSH20 0xFFFFFFFFFFFFFFFFFFFFFFFFFFFFFFFFFFFFFFFF AND PUSH32 0x8BE0079C531659141344CD1FD0A4F28419497F9722A3DAAFE3B4186F6B6457E0 PUSH1 0x40 MLOAD PUSH1 0x40 MLOAD DUP1 SWAP2 SUB SWAP1 LOG3 POP POP JUMP JUMPDEST PUSH1 0x0 CALLER SWAP1 POP SWAP1 JUMP JUMPDEST PUSH1 0x0 PUSH1 0x40 MLOAD SWAP1 POP SWAP1 JUMP JUMPDEST PUSH1 0x0 DUP1 REVERT JUMPDEST PUSH1 0x0 DUP1 REVERT JUMPDEST PUSH1 0x0 DUP1 REVERT JUMPDEST PUSH1 0x0 DUP1 REVERT JUMPDEST PUSH1 0x0 PUSH1 0x1F NOT PUSH1 0x1F DUP4 ADD AND SWAP1 POP SWAP2 SWAP1 POP JUMP JUMPDEST PUSH32 0x4E487B7100000000000000000000000000000000000000000000000000000000 PUSH1 0x0 MSTORE PUSH1 0x41 PUSH1 0x4 MSTORE PUSH1 0x24 PUSH1 0x0 REVERT JUMPDEST PUSH2 0x9D7 DUP3 PUSH2 0x98E JUMP JUMPDEST DUP2 ADD DUP2 DUP2 LT PUSH8 0xFFFFFFFFFFFFFFFF DUP3 GT OR ISZERO PUSH2 0x9F6 JUMPI PUSH2 0x9F5 PUSH2 0x99F JUMP JUMPDEST JUMPDEST DUP1 PUSH1 0x40 MSTORE POP POP POP JUMP JUMPDEST PUSH1 0x0 PUSH2 0xA09 PUSH2 0x970 JUMP JUMPDEST SWAP1 POP PUSH2 0xA15 DUP3 DUP3 PUSH2 0x9CE JUMP JUMPDEST SWAP2 SWAP1 POP JUMP JUMPDEST PUSH1 0x0 PUSH8 0xFFFFFFFFFFFFFFFF DUP3 GT ISZERO PUSH2 0xA35 JUMPI PUSH2 0xA34 PUSH2 0x99F JUMP JUMPDEST JUMPDEST PUSH2 0xA3E DUP3 PUSH2 0x98E JUMP JUMPDEST SWAP1 POP PUSH1 0x20 DUP2 ADD SWAP1 POP SWAP2 SWAP1 POP JUMP JUMPDEST DUP3 DUP2 DUP4 CALLDATACOPY PUSH1 0x0 DUP4 DUP4 ADD MSTORE POP POP POP JUMP JUMPDEST PUSH1 0x0 PUSH2 0xA6D PUSH2 0xA68 DUP5 PUSH2 0xA1A JUMP JUMPDEST PUSH2 0x9FF JUMP JUMPDEST SWAP1 POP DUP3 DUP2 MSTORE PUSH1 0x20 DUP2 ADD DUP5 DUP5 DUP5 ADD GT ISZERO PUSH2 0xA89 JUMPI PUSH2 0xA88 PUSH2 0x989 JUMP JUMPDEST JUMPDEST PUSH2 0xA94 DUP5 DUP3 DUP6 PUSH2 0xA4B JUMP JUMPDEST POP SWAP4 SWAP3 POP POP POP JUMP JUMPDEST PUSH1 0x0 DUP3 PUSH1 0x1F DUP4 ADD SLT PUSH2 0xAB1 JUMPI PUSH2 0xAB0 PUSH2 0x984 JUMP JUMPDEST JUMPDEST DUP2 CALLDATALOAD PUSH2 0xAC1 DUP5 DUP3 PUSH1 0x20 DUP7 ADD PUSH2 0xA5A JUMP JUMPDEST SWAP2 POP POP SWAP3 SWAP2 POP POP JUMP JUMPDEST PUSH1 0x0 PUSH2 0xFFFF DUP3 AND SWAP1 POP SWAP2 SWAP1 POP JUMP JUMPDEST PUSH2 0xAE1 DUP2 PUSH2 0xACA JUMP JUMPDEST DUP2 EQ PUSH2 0xAEC JUMPI PUSH1 0x0 DUP1 REVERT JUMPDEST POP JUMP JUMPDEST PUSH1 0x0 DUP2 CALLDATALOAD SWAP1 POP PUSH2 0xAFE DUP2 PUSH2 0xAD8 JUMP JUMPDEST SWAP3 SWAP2 POP POP JUMP JUMPDEST PUSH1 0x0 DUP1 PUSH1 0x0 DUP1 PUSH1 0x0 PUSH1 0xA0 DUP7 DUP9 SUB SLT ISZERO PUSH2 0xB20 JUMPI PUSH2 0xB1F PUSH2 0x97A JUMP JUMPDEST JUMPDEST PUSH1 0x0 DUP7 ADD CALLDATALOAD PUSH8 0xFFFFFFFFFFFFFFFF DUP2 GT ISZERO PUSH2 0xB3E JUMPI PUSH2 0xB3D PUSH2 0x97F JUMP JUMPDEST JUMPDEST PUSH2 0xB4A DUP9 DUP3 DUP10 ADD PUSH2 0xA9C JUMP JUMPDEST SWAP6 POP POP PUSH1 0x20 DUP7 ADD CALLDATALOAD PUSH8 0xFFFFFFFFFFFFFFFF DUP2 GT ISZERO PUSH2 0xB6B JUMPI PUSH2 0xB6A PUSH2 0x97F JUMP JUMPDEST JUMPDEST PUSH2 0xB77 DUP9 DUP3 DUP10 ADD PUSH2 0xA9C JUMP JUMPDEST SWAP5 POP POP PUSH1 0x40 DUP7 ADD CALLDATALOAD PUSH8 0xFFFFFFFFFFFFFFFF DUP2 GT ISZERO PUSH2 0xB98 JUMPI PUSH2 0xB97 PUSH2 0x97F JUMP JUMPDEST JUMPDEST PUSH2 0xBA4 DUP9 DUP3 DUP10 ADD PUSH2 0xA9C JUMP JUMPDEST SWAP4 POP POP PUSH1 0x60 DUP7 ADD CALLDATALOAD PUSH8 0xFFFFFFFFFFFFFFFF DUP2 GT ISZERO PUSH2 0xBC5 JUMPI PUSH2 0xBC4 PUSH2 0x97F JUMP JUMPDEST JUMPDEST PUSH2 0xBD1 DUP9 DUP3 DUP10 ADD PUSH2 0xA9C JUMP JUMPDEST SWAP3 POP POP PUSH1 0x80 PUSH2 0xBE2 DUP9 DUP3 DUP10 ADD PUSH2 0xAEF JUMP JUMPDEST SWAP2 POP POP SWAP3 SWAP6 POP SWAP3 SWAP6 SWAP1 SWAP4 POP JUMP JUMPDEST PUSH1 0x0 DUP2 SWAP1 POP SWAP2 SWAP1 POP JUMP JUMPDEST PUSH2 0xC02 DUP2 PUSH2 0xBEF JUMP JUMPDEST DUP2 EQ PUSH2 0xC0D JUMPI PUSH1 0x0 DUP1 REVERT JUMPDEST POP JUMP JUMPDEST PUSH1 0x0 DUP2 CALLDATALOAD SWAP1 POP PUSH2 0xC1F DUP2 PUSH2 0xBF9 JUMP JUMPDEST SWAP3 SWAP2 POP POP JUMP JUMPDEST PUSH1 0x0 PUSH1 0x20 DUP3 DUP5 SUB SLT ISZERO PUSH2 0xC3B JUMPI PUSH2 0xC3A PUSH2 0x97A JUMP JUMPDEST JUMPDEST PUSH1 0x0 PUSH2 0xC49 DUP5 DUP3 DUP6 ADD PUSH2 0xC10 JUMP JUMPDEST SWAP2 POP POP SWAP3 SWAP2 POP POP JUMP JUMPDEST PUSH2 0xC5B DUP2 PUSH2 0xBEF JUMP JUMPDEST DUP3 MSTORE POP POP JUMP JUMPDEST PUSH1 0x0 DUP2 MLOAD SWAP1 POP SWAP2 SWAP1 POP JUMP JUMPDEST PUSH1 0x0 DUP3 DUP3 MSTORE PUSH1 0x20 DUP3 ADD SWAP1 POP SWAP3 SWAP2 POP POP JUMP JUMPDEST PUSH1 0x0 JUMPDEST DUP4 DUP2 LT ISZERO PUSH2 0xC9B JUMPI DUP1 DUP3 ADD MLOAD DUP2 DUP5 ADD MSTORE PUSH1 0x20 DUP2 ADD SWAP1 POP PUSH2 0xC80 JUMP JUMPDEST PUSH1 0x0 DUP5 DUP5 ADD MSTORE POP POP POP POP JUMP JUMPDEST PUSH1 0x0 PUSH2 0xCB2 DUP3 PUSH2 0xC61 JUMP JUMPDEST PUSH2 0xCBC DUP2 DUP6 PUSH2 0xC6C JUMP JUMPDEST SWAP4 POP PUSH2 0xCCC DUP2 DUP6 PUSH1 0x20 DUP7 ADD PUSH2 0xC7D JUMP JUMPDEST PUSH2 0xCD5 DUP2 PUSH2 0x98E JUMP JUMPDEST DUP5 ADD SWAP2 POP POP SWAP3 SWAP2 POP POP JUMP JUMPDEST PUSH1 0x0 DUP2 SWAP1 POP SWAP2 SWAP1 POP JUMP JUMPDEST PUSH2 0xCF3 DUP2 PUSH2 0xCE0 JUMP JUMPDEST DUP3 MSTORE POP POP JUMP JUMPDEST PUSH1 0x0 DUP2 ISZERO ISZERO SWAP1 POP SWAP2 SWAP1 POP JUMP JUMPDEST PUSH2 0xD0E DUP2 PUSH2 0xCF9 JUMP JUMPDEST DUP3 MSTORE POP POP JUMP JUMPDEST PUSH2 0xD1D DUP2 PUSH2 0xACA JUMP JUMPDEST DUP3 MSTORE POP POP JUMP JUMPDEST PUSH1 0x0 PUSH2 0x100 DUP3 ADD SWAP1 POP PUSH2 0xD39 PUSH1 0x0 DUP4 ADD DUP12 PUSH2 0xC52 JUMP JUMPDEST DUP2 DUP2 SUB PUSH1 0x20 DUP4 ADD MSTORE PUSH2 0xD4B DUP2 DUP11 PUSH2 0xCA7 JUMP JUMPDEST SWAP1 POP DUP2 DUP2 SUB PUSH1 0x40 DUP4 ADD MSTORE PUSH2 0xD5F DUP2 DUP10 PUSH2 0xCA7 JUMP JUMPDEST SWAP1 POP PUSH2 0xD6E PUSH1 0x60 DUP4 ADD DUP9 PUSH2 0xCEA JUMP JUMPDEST PUSH2 0xD7B PUSH1 0x80 DUP4 ADD DUP8 PUSH2 0xD05 JUMP JUMPDEST DUP2 DUP2 SUB PUSH1 0xA0 DUP4 ADD MSTORE PUSH2 0xD8D DUP2 DUP7 PUSH2 0xCA7 JUMP JUMPDEST SWAP1 POP DUP2 DUP2 SUB PUSH1 0xC0 DUP4 ADD MSTORE PUSH2 0xDA1 DUP2 DUP6 PUSH2 0xCA7 JUMP JUMPDEST SWAP1 POP PUSH2 0xDB0 PUSH1 0xE0 DUP4 ADD DUP5 PUSH2 0xD14 JUMP JUMPDEST SWAP10 SWAP9 POP POP POP POP POP POP POP POP POP JUMP JUMPDEST PUSH1 0x0 PUSH20 0xFFFFFFFFFFFFFFFFFFFFFFFFFFFFFFFFFFFFFFFF DUP3 AND SWAP1 POP SWAP2 SWAP1 POP JUMP JUMPDEST PUSH1 0x0 PUSH2 0xDE8 DUP3 PUSH2 0xDBD JUMP JUMPDEST SWAP1 POP SWAP2 SWAP1 POP JUMP JUMPDEST PUSH2 0xDF8 DUP2 PUSH2 0xDDD JUMP JUMPDEST DUP3 MSTORE POP POP JUMP JUMPDEST PUSH1 0x0 PUSH1 0x20 DUP3 ADD SWAP1 POP PUSH2 0xE13 PUSH1 0x0 DUP4 ADD DUP5 PUSH2 0xDEF JUMP JUMPDEST SWAP3 SWAP2 POP POP JUMP JUMPDEST PUSH2 0xE22 DUP2 PUSH2 0xDDD JUMP JUMPDEST DUP2 EQ PUSH2 0xE2D JUMPI PUSH1 0x0 DUP1 REVERT JUMPDEST POP JUMP JUMPDEST PUSH1 0x0 DUP2 CALLDATALOAD SWAP1 POP PUSH2 0xE3F DUP2 PUSH2 0xE19 JUMP JUMPDEST SWAP3 SWAP2 POP POP JUMP JUMPDEST PUSH1 0x0 PUSH1 0x20 DUP3 DUP5 SUB SLT ISZERO PUSH2 0xE5B JUMPI PUSH2 0xE5A PUSH2 0x97A JUMP JUMPDEST JUMPDEST PUSH1 0x0 PUSH2 0xE69 DUP5 DUP3 DUP6 ADD PUSH2 0xE30 JUMP JUMPDEST SWAP2 POP POP SWAP3 SWAP2 POP POP JUMP JUMPDEST PUSH32 0x4E487B7100000000000000000000000000000000000000000000000000000000 PUSH1 0x0 MSTORE PUSH1 0x11 PUSH1 0x4 MSTORE PUSH1 0x24 PUSH1 0x0 REVERT JUMPDEST PUSH1 0x0 PUSH2 0xEAC DUP3 PUSH2 0xCE0 JUMP JUMPDEST SWAP2 POP PUSH32 0xFFFFFFFFFFFFFFFFFFFFFFFFFFFFFFFFFFFFFFFFFFFFFFFFFFFFFFFFFFFFFFFF DUP3 SUB PUSH2 0xEDE JUMPI PUSH2 0xEDD PUSH2 0xE72 JUMP JUMPDEST JUMPDEST PUSH1 0x1 DUP3 ADD SWAP1 POP SWAP2 SWAP1 POP JUMP JUMPDEST PUSH32 0x4E487B7100000000000000000000000000000000000000000000000000000000 PUSH1 0x0 MSTORE PUSH1 0x22 PUSH1 0x4 MSTORE PUSH1 0x24 PUSH1 0x0 REVERT JUMPDEST PUSH1 0x0 PUSH1 0x2 DUP3 DIV SWAP1 POP PUSH1 0x1 DUP3 AND DUP1 PUSH2 0xF30 JUMPI PUSH1 0x7F DUP3 AND SWAP2 POP JUMPDEST PUSH1 0x20 DUP3 LT DUP2 SUB PUSH2 0xF43 JUMPI PUSH2 0xF42 PUSH2 0xEE9 JUMP JUMPDEST JUMPDEST POP SWAP2 SWAP1 POP JUMP JUMPDEST PUSH1 0x0 DUP2 SWAP1 POP DUP2 PUSH1 0x0 MSTORE PUSH1 0x20 PUSH1 0x0 KECCAK256 SWAP1 POP SWAP2 SWAP1 POP JUMP JUMPDEST PUSH1 0x0 PUSH1 0x20 PUSH1 0x1F DUP4 ADD DIV SWAP1 POP SWAP2 SWAP1 POP JUMP JUMPDEST PUSH1 0x0 DUP3 DUP3 SHL SWAP1 POP SWAP3 SWAP2 POP POP JUMP JUMPDEST PUSH1 0x0 PUSH1 0x8 DUP4 MUL PUSH2 0xFAB PUSH32 0xFFFFFFFFFFFFFFFFFFFFFFFFFFFFFFFFFFFFFFFFFFFFFFFFFFFFFFFFFFFFFFFF DUP3 PUSH2 0xF6E JUMP JUMPDEST PUSH2 0xFB5 DUP7 DUP4 PUSH2 0xF6E JUMP JUMPDEST SWAP6 POP DUP1 NOT DUP5 AND SWAP4 POP DUP1 DUP7 AND DUP5 OR SWAP3 POP POP POP SWAP4 SWAP3 POP POP POP JUMP JUMPDEST PUSH1 0x0 DUP2 SWAP1 POP SWAP2 SWAP1 POP JUMP JUMPDEST PUSH1 0x0 PUSH2 0xFF2 PUSH2 0xFED PUSH2 0xFE8 DUP5 PUSH2 0xCE0 JUMP JUMPDEST PUSH2 0xFCD JUMP JUMPDEST PUSH2 0xCE0 JUMP JUMPDEST SWAP1 POP SWAP2 SWAP1 POP JUMP JUMPDEST PUSH1 0x0 DUP2 SWAP1 POP SWAP2 SWAP1 POP JUMP JUMPDEST PUSH2 0x100C DUP4 PUSH2 0xFD7 JUMP JUMPDEST PUSH2 0x1020 PUSH2 0x1018 DUP3 PUSH2 0xFF9 JUMP JUMPDEST DUP5 DUP5 SLOAD PUSH2 0xF7B JUMP JUMPDEST DUP3 SSTORE POP POP POP POP JUMP JUMPDEST PUSH1 0x0 SWAP1 JUMP JUMPDEST PUSH2 0x1035 PUSH2 0x1028 JUMP JUMPDEST PUSH2 0x1040 DUP2 DUP5 DUP5 PUSH2 0x1003 JUMP JUMPDEST POP POP POP JUMP JUMPDEST JUMPDEST DUP2 DUP2 LT ISZERO PUSH2 0x1064 JUMPI PUSH2 0x1059 PUSH1 0x0 DUP3 PUSH2 0x102D JUMP JUMPDEST PUSH1 0x1 DUP2 ADD SWAP1 POP PUSH2 0x1046 JUMP JUMPDEST POP POP JUMP JUMPDEST PUSH1 0x1F DUP3 GT ISZERO PUSH2 0x10A9 JUMPI PUSH2 0x107A DUP2 PUSH2 0xF49 JUMP JUMPDEST PUSH2 0x1083 DUP5 PUSH2 0xF5E JUMP JUMPDEST DUP2 ADD PUSH1 0x20 DUP6 LT ISZERO PUSH2 0x1092 JUMPI DUP2 SWAP1 POP JUMPDEST PUSH2 0x10A6 PUSH2 0x109E DUP6 PUSH2 0xF5E JUMP JUMPDEST DUP4 ADD DUP3 PUSH2 0x1045 JUMP JUMPDEST POP POP JUMPDEST POP POP POP JUMP JUMPDEST PUSH1 0x0 DUP3 DUP3 SHR SWAP1 POP SWAP3 SWAP2 POP POP JUMP JUMPDEST PUSH1 0x0 PUSH2 0x10CC PUSH1 0x0 NOT DUP5 PUSH1 0x8 MUL PUSH2 0x10AE JUMP JUMPDEST NOT DUP1 DUP4 AND SWAP2 POP POP SWAP3 SWAP2 POP POP JUMP JUMPDEST PUSH1 0x0 PUSH2 0x10E5 DUP4 DUP4 PUSH2 0x10BB JUMP JUMPDEST SWAP2 POP DUP3 PUSH1 0x2 MUL DUP3 OR SWAP1 POP SWAP3 SWAP2 POP POP JUMP JUMPDEST PUSH2 0x10FE DUP3 PUSH2 0xC61 JUMP JUMPDEST PUSH8 0xFFFFFFFFFFFFFFFF DUP2 GT ISZERO PUSH2 0x1117 JUMPI PUSH2 0x1116 PUSH2 0x99F JUMP JUMPDEST JUMPDEST PUSH2 0x1121 DUP3 SLOAD PUSH2 0xF18 JUMP JUMPDEST PUSH2 0x112C DUP3 DUP3 DUP6 PUSH2 0x1068 JUMP JUMPDEST PUSH1 0x0 PUSH1 0x20 SWAP1 POP PUSH1 0x1F DUP4 GT PUSH1 0x1 DUP2 EQ PUSH2 0x115F JUMPI PUSH1 0x0 DUP5 ISZERO PUSH2 0x114D JUMPI DUP3 DUP8 ADD MLOAD SWAP1 POP JUMPDEST PUSH2 0x1157 DUP6 DUP3 PUSH2 0x10D9 JUMP JUMPDEST DUP7 SSTORE POP PUSH2 0x11BF JUMP JUMPDEST PUSH1 0x1F NOT DUP5 AND PUSH2 0x116D DUP7 PUSH2 0xF49 JUMP JUMPDEST PUSH1 0x0 JUMPDEST DUP3 DUP2 LT ISZERO PUSH2 0x1195 JUMPI DUP5 DUP10 ADD MLOAD DUP3 SSTORE PUSH1 0x1 DUP3 ADD SWAP2 POP PUSH1 0x20 DUP6 ADD SWAP5 POP PUSH1 0x20 DUP2 ADD SWAP1 POP PUSH2 0x1170 JUMP JUMPDEST DUP7 DUP4 LT ISZERO PUSH2 0x11B2 JUMPI DUP5 DUP10 ADD MLOAD PUSH2 0x11AE PUSH1 0x1F DUP10 AND DUP3 PUSH2 0x10BB JUMP JUMPDEST DUP4 SSTORE POP JUMPDEST PUSH1 0x1 PUSH1 0x2 DUP9 MUL ADD DUP9 SSTORE POP POP POP JUMPDEST POP POP POP POP POP POP JUMP JUMPDEST PUSH32 0x496E76616C696420636572746966696361746520494400000000000000000000 PUSH1 0x0 DUP3 ADD MSTORE POP JUMP JUMPDEST PUSH1 0x0 PUSH2 0x11FD PUSH1 0x16 DUP4 PUSH2 0xC6C JUMP JUMPDEST SWAP2 POP PUSH2 0x1208 DUP3 PUSH2 0x11C7 JUMP JUMPDEST PUSH1 0x20 DUP3 ADD SWAP1 POP SWAP2 SWAP1 POP JUMP JUMPDEST PUSH1 0x0 PUSH1 0x20 DUP3 ADD SWAP1 POP DUP2 DUP2 SUB PUSH1 0x0 DUP4 ADD MSTORE PUSH2 0x122C DUP2 PUSH2 0x11F0 JUMP JUMPDEST SWAP1 POP SWAP2 SWAP1 POP JUMP JUMPDEST PUSH32 0x436572746966696361746520697320616C726561647920696E76616C69640000 PUSH1 0x0 DUP3 ADD MSTORE POP JUMP JUMPDEST PUSH1 0x0 PUSH2 0x1269 PUSH1 0x1E DUP4 PUSH2 0xC6C JUMP JUMPDEST SWAP2 POP PUSH2 0x1274 DUP3 PUSH2 0x1233 JUMP JUMPDEST PUSH1 0x20 DUP3 ADD SWAP1 POP SWAP2 SWAP1 POP JUMP JUMPDEST PUSH1 0x0 PUSH1 0x20 DUP3 ADD SWAP1 POP DUP2 DUP2 SUB PUSH1 0x0 DUP4 ADD MSTORE PUSH2 0x1298 DUP2 PUSH2 0x125C JUMP JUMPDEST SWAP1 POP SWAP2 SWAP1 POP JUMP JUMPDEST PUSH1 0x0 PUSH1 0x40 DUP3 ADD SWAP1 POP PUSH2 0x12B4 PUSH1 0x0 DUP4 ADD DUP6 PUSH2 0xC52 JUMP JUMPDEST PUSH2 0x12C1 PUSH1 0x20 DUP4 ADD DUP5 PUSH2 0xD05 JUMP JUMPDEST SWAP4 SWAP3 POP POP POP JUMP JUMPDEST PUSH1 0x0 DUP2 SWAP1 POP SWAP2 SWAP1 POP JUMP JUMPDEST PUSH2 0x12E3 PUSH2 0x12DE DUP3 PUSH2 0xCE0 JUMP JUMPDEST PUSH2 0x12C8 JUMP JUMPDEST DUP3 MSTORE POP POP JUMP JUMPDEST PUSH1 0x0 DUP2 PUSH1 0x60 SHL SWAP1 POP SWAP2 SWAP1 POP JUMP JUMPDEST PUSH1 0x0 PUSH2 0x1301 DUP3 PUSH2 0x12E9 JUMP JUMPDEST SWAP1 POP SWAP2 SWAP1 POP JUMP JUMPDEST PUSH1 0x0 PUSH2 0x1313 DUP3 PUSH2 0x12F6 JUMP JUMPDEST SWAP1 POP SWAP2 SWAP1 POP JUMP JUMPDEST PUSH2 0x132B PUSH2 0x1326 DUP3 PUSH2 0xDDD JUMP JUMPDEST PUSH2 0x1308 JUMP JUMPDEST DUP3 MSTORE POP POP JUMP JUMPDEST PUSH1 0x0 PUSH2 0x133D DUP3 DUP7 PUSH2 0x12D2 JUMP JUMPDEST PUSH1 0x20 DUP3 ADD SWAP2 POP PUSH2 0x134D DUP3 DUP6 PUSH2 0x131A JUMP JUMPDEST PUSH1 0x14 DUP3 ADD SWAP2 POP PUSH2 0x135D DUP3 DUP5 PUSH2 0x12D2 JUMP JUMPDEST PUSH1 0x20 DUP3 ADD SWAP2 POP DUP2 SWAP1 POP SWAP5 SWAP4 POP POP POP POP JUMP INVALID LOG2 PUSH5 0x6970667358 0x22 SLT KECCAK256 0xAF COINBASE 0xC DUP13 GT BASEFEE EXP 0xAC 0xF7 0xA5 0xAD 0xDB PUSH6 0xC090063FDC9A 0x5C EXTCODESIZE PUSH30 0x988373C33C0E1F537FBC64736F6C63430008140033000000000000000000 "
        },
        "methodIdentifiers": {
          "createCertification(string,string,string,string,uint16)": "10610b7e",
          "getCertification(bytes32)": "1fb25f07",
          "invalidateCertification(bytes32)": "8ac0482a",
          "owner()": "8da5cb5b",
          "renounceOwnership()": "715018a6",
          "transferOwnership(address)": "f2fde38b"
        }
      }
    }
  }
}