{
  "_format": "hh-sol-artifact-1",
  "contractName": "Certifications",
  "sourceName": "contracts/Certifications.sol",
  "abi": [
    {
      "inputs": [
        {
          "internalType": "address",
          "name": "initialOwner",
          "type": "address"
        }
      ],
      "stateMutability": "nonpayable",
      "type": "constructor"
    },
    {
      "inputs": [
        {
          "internalType": "address",
          "name": "owner",
          "type": "address"
        }
      ],
      "name": "OwnableInvalidOwner",
      "type": "error"
    },
    {
      "inputs": [
        {
          "internalType": "address",
          "name": "account",
          "type": "address"
        }
      ],
      "name": "OwnableUnauthorizedAccount",
      "type": "error"
    },
    {
      "anonymous": false,
      "inputs": [
        {
          "indexed": false,
          "internalType": "bytes32",
          "name": "id",
          "type": "bytes32"
        },
        {
          "indexed": false,
          "internalType": "string",
          "name": "email",
          "type": "string"
        },
        {
          "indexed": false,
          "internalType": "string",
          "name": "name",
          "type": "string"
        },
        {
          "indexed": false,
          "internalType": "uint256",
          "name": "createdAt",
          "type": "uint256"
        },
        {
          "indexed": false,
          "internalType": "bool",
          "name": "isValid",
          "type": "bool"
        },
        {
          "indexed": false,
          "internalType": "string",
          "name": "universityName",
          "type": "string"
        },
        {
          "indexed": false,
          "internalType": "string",
          "name": "courseName",
          "type": "string"
        },
        {
          "indexed": false,
          "internalType": "uint16",
          "name": "hoursAmount",
          "type": "uint16"
        }
      ],
      "name": "CertificationCreatedEvent",
      "type": "event"
    },
    {
      "anonymous": false,
      "inputs": [
        {
          "indexed": false,
          "internalType": "bytes32",
          "name": "id",
          "type": "bytes32"
        },
        {
          "indexed": false,
          "internalType": "bool",
          "name": "isValid",
          "type": "bool"
        }
      ],
      "name": "CertificationUpdatedEvent",
      "type": "event"
    },
    {
      "anonymous": false,
      "inputs": [
        {
          "indexed": true,
          "internalType": "address",
          "name": "previousOwner",
          "type": "address"
        },
        {
          "indexed": true,
          "internalType": "address",
          "name": "newOwner",
          "type": "address"
        }
      ],
      "name": "OwnershipTransferred",
      "type": "event"
    },
    {
      "inputs": [
        {
          "internalType": "string",
          "name": "_name",
          "type": "string"
        },
        {
          "internalType": "string",
          "name": "_email",
          "type": "string"
        },
        {
          "internalType": "string",
          "name": "_universityName",
          "type": "string"
        },
        {
          "internalType": "string",
          "name": "_courseName",
          "type": "string"
        },
        {
          "internalType": "uint16",
          "name": "_hoursAmount",
          "type": "uint16"
        }
      ],
      "name": "createCertification",
      "outputs": [],
      "stateMutability": "nonpayable",
      "type": "function"
    },
    {
      "inputs": [
        {
          "internalType": "bytes32",
          "name": "_id",
          "type": "bytes32"
        }
      ],
      "name": "getCertification",
      "outputs": [
        {
          "internalType": "bytes32",
          "name": "id",
          "type": "bytes32"
        },
        {
          "internalType": "string",
          "name": "email",
          "type": "string"
        },
        {
          "internalType": "string",
          "name": "name",
          "type": "string"
        },
        {
          "internalType": "uint256",
          "name": "createdAt",
          "type": "uint256"
        },
        {
          "internalType": "bool",
          "name": "isValid",
          "type": "bool"
        },
        {
          "internalType": "string",
          "name": "universityName",
          "type": "string"
        },
        {
          "internalType": "string",
          "name": "courseName",
          "type": "string"
        },
        {
          "internalType": "uint16",
          "name": "hoursAmount",
          "type": "uint16"
        }
      ],
      "stateMutability": "view",
      "type": "function"
    },
    {
      "inputs": [
        {
          "internalType": "bytes32",
          "name": "_id",
          "type": "bytes32"
        }
      ],
      "name": "invalidateCertification",
      "outputs": [],
      "stateMutability": "nonpayable",
      "type": "function"
    },
    {
      "inputs": [],
      "name": "owner",
      "outputs": [
        {
          "internalType": "address",
          "name": "",
          "type": "address"
        }
      ],
      "stateMutability": "view",
      "type": "function"
    },
    {
      "inputs": [],
      "name": "renounceOwnership",
      "outputs": [],
      "stateMutability": "nonpayable",
      "type": "function"
    },
    {
      "inputs": [
        {
          "internalType": "address",
          "name": "newOwner",
          "type": "address"
        }
      ],
      "name": "transferOwnership",
      "outputs": [],
      "stateMutability": "nonpayable",
      "type": "function"
    }
  ],
  "bytecode": "0x608060405260006001553480156200001657600080fd5b506040516200160d3803806200160d83398181016040528101906200003c9190620001f9565b80600073ffffffffffffffffffffffffffffffffffffffff168173ffffffffffffffffffffffffffffffffffffffff1603620000b25760006040517f1e4fbdf7000000000000000000000000000000000000000000000000000000008152600401620000a991906200023c565b60405180910390fd5b620000c381620000cb60201b60201c565b505062000259565b60008060009054906101000a900473ffffffffffffffffffffffffffffffffffffffff169050816000806101000a81548173ffffffffffffffffffffffffffffffffffffffff021916908373ffffffffffffffffffffffffffffffffffffffff1602179055508173ffffffffffffffffffffffffffffffffffffffff168173ffffffffffffffffffffffffffffffffffffffff167f8be0079c531659141344cd1fd0a4f28419497f9722a3daafe3b4186f6b6457e060405160405180910390a35050565b600080fd5b600073ffffffffffffffffffffffffffffffffffffffff82169050919050565b6000620001c18262000194565b9050919050565b620001d381620001b4565b8114620001df57600080fd5b50565b600081519050620001f381620001c8565b92915050565b6000602082840312156200021257620002116200018f565b5b60006200022284828501620001e2565b91505092915050565b6200023681620001b4565b82525050565b60006020820190506200025360008301846200022b565b92915050565b6113a480620002696000396000f3fe608060405234801561001057600080fd5b50600436106100625760003560e01c806310610b7e146100675780631fb25f0714610083578063715018a6146100ba5780638ac0482a146100c45780638da5cb5b146100e0578063f2fde38b146100fe575b600080fd5b610081600480360381019061007c9190610b04565b61011a565b005b61009d60048036038101906100989190610c25565b61029a565b6040516100b1989796959493929190610d23565b60405180910390f35b6100c2610600565b005b6100de60048036038101906100d99190610c25565b610614565b005b6100e861073a565b6040516100f59190610dfe565b60405180910390f35b61011860048036038101906101139190610e45565b610763565b005b6101226107e9565b600061012c610870565b90506001600081548092919061014190610ea1565b91905055506040518061010001604052808281526020018681526020018781526020014281526020016001151581526020018581526020018481526020018361ffff16815250600260008381526020019081526020016000206000820151816000015560208201518160010190816101b991906110f5565b5060408201518160020190816101cf91906110f5565b506060820151816003015560808201518160040160006101000a81548160ff02191690831515021790555060a082015181600501908161020f91906110f5565b5060c082015181600601908161022591906110f5565b5060e08201518160070160006101000a81548161ffff021916908361ffff1602179055509050507fd040da4bc7d71ace411d2a5dd1302777d11dad39fd5dfe9229ff82ea2fb2227381868842600189898960405161028a989796959493929190610d23565b60405180910390a1505050505050565b600060608060008060608060008060001b600260008b81526020019081526020016000206000015403610302576040517f08c379a00000000000000000000000000000000000000000000000000000000081526004016102f990611213565b60405180910390fd5b6000600260008b8152602001908152602001600020604051806101000160405290816000820154815260200160018201805461033d90610f18565b80601f016020809104026020016040519081016040528092919081815260200182805461036990610f18565b80156103b65780601f1061038b576101008083540402835291602001916103b6565b820191906000526020600020905b81548152906001019060200180831161039957829003601f168201915b505050505081526020016002820180546103cf90610f18565b80601f01602080910402602001604051908101604052809291908181526020018280546103fb90610f18565b80156104485780601f1061041d57610100808354040283529160200191610448565b820191906000526020600020905b81548152906001019060200180831161042b57829003601f168201915b50505050508152602001600382015481526020016004820160009054906101000a900460ff1615151515815260200160058201805461048690610f18565b80601f01602080910402602001604051908101604052809291908181526020018280546104b290610f18565b80156104ff5780601f106104d4576101008083540402835291602001916104ff565b820191906000526020600020905b8154815290600101906020018083116104e257829003601f168201915b5050505050815260200160068201805461051890610f18565b80601f016020809104026020016040519081016040528092919081815260200182805461054490610f18565b80156105915780601f1061056657610100808354040283529160200191610591565b820191906000526020600020905b81548152906001019060200180831161057457829003601f168201915b505050505081526020016007820160009054906101000a900461ffff1661ffff1661ffff16815250509050806000015181602001518260400151836060015184608001518560a001518660c001518760e001519850985098509850985098509850985050919395975091939597565b6106086107e9565b61061260006108a4565b565b61061c6107e9565b6000801b600260008381526020019081526020016000206000015403610677576040517f08c379a000000000000000000000000000000000000000000000000000000000815260040161066e90611213565b60405180910390fd5b60006002600083815260200190815260200160002090508060040160009054906101000a900460ff166106df576040517f08c379a00000000000000000000000000000000000000000000000000000000081526004016106d69061127f565b60405180910390fd5b60008160040160006101000a81548160ff0219169083151502179055507fe1aaa9b3780425c13b317e88af58b3dba224afbf20af854c0923d10f0762524e82600060405161072e92919061129f565b60405180910390a15050565b60008060009054906101000a900473ffffffffffffffffffffffffffffffffffffffff16905090565b61076b6107e9565b600073ffffffffffffffffffffffffffffffffffffffff168173ffffffffffffffffffffffffffffffffffffffff16036107dd5760006040517f1e4fbdf70000000000000000000000000000000000000000000000000000000081526004016107d49190610dfe565b60405180910390fd5b6107e6816108a4565b50565b6107f1610968565b73ffffffffffffffffffffffffffffffffffffffff1661080f61073a565b73ffffffffffffffffffffffffffffffffffffffff161461086e57610832610968565b6040517f118cdaa70000000000000000000000000000000000000000000000000000000081526004016108659190610dfe565b60405180910390fd5b565b6000423360015460405160200161088993929190611331565b60405160208183030381529060405280519060200120905090565b60008060009054906101000a900473ffffffffffffffffffffffffffffffffffffffff169050816000806101000a81548173ffffffffffffffffffffffffffffffffffffffff021916908373ffffffffffffffffffffffffffffffffffffffff1602179055508173ffffffffffffffffffffffffffffffffffffffff168173ffffffffffffffffffffffffffffffffffffffff167f8be0079c531659141344cd1fd0a4f28419497f9722a3daafe3b4186f6b6457e060405160405180910390a35050565b600033905090565b6000604051905090565b600080fd5b600080fd5b600080fd5b600080fd5b6000601f19601f8301169050919050565b7f4e487b7100000000000000000000000000000000000000000000000000000000600052604160045260246000fd5b6109d78261098e565b810181811067ffffffffffffffff821117156109f6576109f561099f565b5b80604052505050565b6000610a09610970565b9050610a1582826109ce565b919050565b600067ffffffffffffffff821115610a3557610a3461099f565b5b610a3e8261098e565b9050602081019050919050565b82818337600083830152505050565b6000610a6d610a6884610a1a565b6109ff565b905082815260208101848484011115610a8957610a88610989565b5b610a94848285610a4b565b509392505050565b600082601f830112610ab157610ab0610984565b5b8135610ac1848260208601610a5a565b91505092915050565b600061ffff82169050919050565b610ae181610aca565b8114610aec57600080fd5b50565b600081359050610afe81610ad8565b92915050565b600080600080600060a08688031215610b2057610b1f61097a565b5b600086013567ffffffffffffffff811115610b3e57610b3d61097f565b5b610b4a88828901610a9c565b955050602086013567ffffffffffffffff811115610b6b57610b6a61097f565b5b610b7788828901610a9c565b945050604086013567ffffffffffffffff811115610b9857610b9761097f565b5b610ba488828901610a9c565b935050606086013567ffffffffffffffff811115610bc557610bc461097f565b5b610bd188828901610a9c565b9250506080610be288828901610aef565b9150509295509295909350565b6000819050919050565b610c0281610bef565b8114610c0d57600080fd5b50565b600081359050610c1f81610bf9565b92915050565b600060208284031215610c3b57610c3a61097a565b5b6000610c4984828501610c10565b91505092915050565b610c5b81610bef565b82525050565b600081519050919050565b600082825260208201905092915050565b60005b83811015610c9b578082015181840152602081019050610c80565b60008484015250505050565b6000610cb282610c61565b610cbc8185610c6c565b9350610ccc818560208601610c7d565b610cd58161098e565b840191505092915050565b6000819050919050565b610cf381610ce0565b82525050565b60008115159050919050565b610d0e81610cf9565b82525050565b610d1d81610aca565b82525050565b600061010082019050610d39600083018b610c52565b8181036020830152610d4b818a610ca7565b90508181036040830152610d5f8189610ca7565b9050610d6e6060830188610cea565b610d7b6080830187610d05565b81810360a0830152610d8d8186610ca7565b905081810360c0830152610da18185610ca7565b9050610db060e0830184610d14565b9998505050505050505050565b600073ffffffffffffffffffffffffffffffffffffffff82169050919050565b6000610de882610dbd565b9050919050565b610df881610ddd565b82525050565b6000602082019050610e136000830184610def565b92915050565b610e2281610ddd565b8114610e2d57600080fd5b50565b600081359050610e3f81610e19565b92915050565b600060208284031215610e5b57610e5a61097a565b5b6000610e6984828501610e30565b91505092915050565b7f4e487b7100000000000000000000000000000000000000000000000000000000600052601160045260246000fd5b6000610eac82610ce0565b91507fffffffffffffffffffffffffffffffffffffffffffffffffffffffffffffffff8203610ede57610edd610e72565b5b600182019050919050565b7f4e487b7100000000000000000000000000000000000000000000000000000000600052602260045260246000fd5b60006002820490506001821680610f3057607f821691505b602082108103610f4357610f42610ee9565b5b50919050565b60008190508160005260206000209050919050565b60006020601f8301049050919050565b600082821b905092915050565b600060088302610fab7fffffffffffffffffffffffffffffffffffffffffffffffffffffffffffffffff82610f6e565b610fb58683610f6e565b95508019841693508086168417925050509392505050565b6000819050919050565b6000610ff2610fed610fe884610ce0565b610fcd565b610ce0565b9050919050565b6000819050919050565b61100c83610fd7565b61102061101882610ff9565b848454610f7b565b825550505050565b600090565b611035611028565b611040818484611003565b505050565b5b818110156110645761105960008261102d565b600181019050611046565b5050565b601f8211156110a95761107a81610f49565b61108384610f5e565b81016020851015611092578190505b6110a661109e85610f5e565b830182611045565b50505b505050565b600082821c905092915050565b60006110cc600019846008026110ae565b1980831691505092915050565b60006110e583836110bb565b9150826002028217905092915050565b6110fe82610c61565b67ffffffffffffffff8111156111175761111661099f565b5b6111218254610f18565b61112c828285611068565b600060209050601f83116001811461115f576000841561114d578287015190505b61115785826110d9565b8655506111bf565b601f19841661116d86610f49565b60005b8281101561119557848901518255600182019150602085019450602081019050611170565b868310156111b257848901516111ae601f8916826110bb565b8355505b6001600288020188555050505b505050505050565b7f496e76616c696420636572746966696361746520494400000000000000000000600082015250565b60006111fd601683610c6c565b9150611208826111c7565b602082019050919050565b6000602082019050818103600083015261122c816111f0565b9050919050565b7f436572746966696361746520697320616c726561647920696e76616c69640000600082015250565b6000611269601e83610c6c565b915061127482611233565b602082019050919050565b600060208201905081810360008301526112988161125c565b9050919050565b60006040820190506112b46000830185610c52565b6112c16020830184610d05565b9392505050565b6000819050919050565b6112e36112de82610ce0565b6112c8565b82525050565b60008160601b9050919050565b6000611301826112e9565b9050919050565b6000611313826112f6565b9050919050565b61132b61132682610ddd565b611308565b82525050565b600061133d82866112d2565b60208201915061134d828561131a565b60148201915061135d82846112d2565b60208201915081905094935050505056fea2646970667358221220af410c8c11480aacf7a5addb65c090063fdc9a5c3b7d988373c33c0e1f537fbc64736f6c63430008140033",
  "linkReferences": {},
  "deployedLinkReferences": {}
}