{
  "_format": "hh-sol-artifact-1",
  "contractName": "Certifications",
  "sourceName": "contracts/Certifications.sol",
  "abi": [
    {
      "anonymous": false,
      "inputs": [
        {
          "indexed": false,
          "internalType": "uint256",
          "name": "id",
          "type": "uint256"
        },
        {
          "indexed": false,
          "internalType": "string",
          "name": "email",
          "type": "string"
        },
        {
          "indexed": false,
          "internalType": "string",
          "name": "name",
          "type": "string"
        },
        {
          "indexed": false,
          "internalType": "uint256",
          "name": "createdAt",
          "type": "uint256"
        },
        {
          "indexed": false,
          "internalType": "bool",
          "name": "isValid",
          "type": "bool"
        }
      ],
      "name": "CertificationCreatedEvent",
      "type": "event"
    },
    {
      "anonymous": false,
      "inputs": [
        {
          "indexed": false,
          "internalType": "uint256",
          "name": "id",
          "type": "uint256"
        },
        {
          "indexed": false,
          "internalType": "bool",
          "name": "updated",
          "type": "bool"
        }
      ],
      "name": "CertificationUpdatedEvent",
      "type": "event"
    },
    {
      "inputs": [
        {
          "internalType": "uint256",
          "name": "",
          "type": "uint256"
        }
      ],
      "name": "certificationList",
      "outputs": [
        {
          "internalType": "uint256",
          "name": "id",
          "type": "uint256"
        },
        {
          "internalType": "string",
          "name": "email",
          "type": "string"
        },
        {
          "internalType": "string",
          "name": "name",
          "type": "string"
        },
        {
          "internalType": "uint256",
          "name": "createdAt",
          "type": "uint256"
        },
        {
          "internalType": "bool",
          "name": "isValid",
          "type": "bool"
        }
      ],
      "stateMutability": "view",
      "type": "function"
    },
    {
      "inputs": [
        {
          "internalType": "uint256",
          "name": "_id",
          "type": "uint256"
        },
        {
          "internalType": "string",
          "name": "_name",
          "type": "string"
        },
        {
          "internalType": "string",
          "name": "_email",
          "type": "string"
        }
      ],
      "name": "createCertification",
      "outputs": [],
      "stateMutability": "nonpayable",
      "type": "function"
    },
    {
      "inputs": [
        {
          "internalType": "uint256",
          "name": "_id",
          "type": "uint256"
        }
      ],
      "name": "getCertification",
      "outputs": [
        {
          "internalType": "uint256",
          "name": "id",
          "type": "uint256"
        },
        {
          "internalType": "string",
          "name": "email",
          "type": "string"
        },
        {
          "internalType": "string",
          "name": "name",
          "type": "string"
        },
        {
          "internalType": "uint256",
          "name": "createdAt",
          "type": "uint256"
        },
        {
          "internalType": "bool",
          "name": "isValid",
          "type": "bool"
        }
      ],
      "stateMutability": "view",
      "type": "function"
    },
    {
      "inputs": [
        {
          "internalType": "uint256",
          "name": "_id",
          "type": "uint256"
        }
      ],
      "name": "invalidContrat",
      "outputs": [],
      "stateMutability": "nonpayable",
      "type": "function"
    }
  ],
  "bytecode": "0x60806040526000805534801561001457600080fd5b50610e2c806100246000396000f3fe608060405234801561001057600080fd5b506004361061004c5760003560e01c806321c31931146100515780635d56562b1461006d578063a9c1c360146100a1578063ec981eac146100bd575b600080fd5b61006b600480360381019061006691906108b6565b6100f1565b005b61008760048036038101906100829190610941565b6101ee565b604051610098959493929190610a17565b60405180910390f35b6100bb60048036038101906100b69190610941565b610341565b005b6100d760048036038101906100d29190610941565b61057c565b6040516100e8959493929190610a17565b60405180910390f35b6040518060a0016040528084815260200182815260200183815260200142815260200160011515815250600160008054815260200190815260200160002060008201518160000155602082015181600101908161014e9190610c84565b5060408201518160020190816101649190610c84565b506060820151816003015560808201518160040160006101000a81548160ff0219169083151502179055509050506000808154809291906101a490610d85565b91905055507f2fea2409bd514e0f4de7d1eedb30704d4379df6bd0b492290d55c51a6ed49ed08382844260016040516101e1959493929190610a17565b60405180910390a1505050565b600160205280600052604060002060009150905080600001549080600101805461021790610aa7565b80601f016020809104026020016040519081016040528092919081815260200182805461024390610aa7565b80156102905780601f1061026557610100808354040283529160200191610290565b820191906000526020600020905b81548152906001019060200180831161027357829003601f168201915b5050505050908060020180546102a590610aa7565b80601f01602080910402602001604051908101604052809291908181526020018280546102d190610aa7565b801561031e5780601f106102f35761010080835404028352916020019161031e565b820191906000526020600020905b81548152906001019060200180831161030157829003601f168201915b5050505050908060030154908060040160009054906101000a900460ff16905085565b6000600160008381526020019081526020016000206040518060a00160405290816000820154815260200160018201805461037b90610aa7565b80601f01602080910402602001604051908101604052809291908181526020018280546103a790610aa7565b80156103f45780601f106103c9576101008083540402835291602001916103f4565b820191906000526020600020905b8154815290600101906020018083116103d757829003601f168201915b5050505050815260200160028201805461040d90610aa7565b80601f016020809104026020016040519081016040528092919081815260200182805461043990610aa7565b80156104865780601f1061045b57610100808354040283529160200191610486565b820191906000526020600020905b81548152906001019060200180831161046957829003601f168201915b50505050508152602001600382015481526020016004820160009054906101000a900460ff1615151515815250509050600081608001901515908115158152505080600160008481526020019081526020016000206000820151816000015560208201518160010190816104fa9190610c84565b5060408201518160020190816105109190610c84565b506060820151816003015560808201518160040160006101000a81548160ff0219169083151502179055509050507f0e22ac8f4d1d0b5f9862f922444bbe1afa6c809b95cc2b65e9744ff41374aac7826001604051610570929190610dcd565b60405180910390a15050565b60006060806000806000600160008881526020019081526020016000206040518060a0016040529081600082015481526020016001820180546105be90610aa7565b80601f01602080910402602001604051908101604052809291908181526020018280546105ea90610aa7565b80156106375780601f1061060c57610100808354040283529160200191610637565b820191906000526020600020905b81548152906001019060200180831161061a57829003601f168201915b5050505050815260200160028201805461065090610aa7565b80601f016020809104026020016040519081016040528092919081815260200182805461067c90610aa7565b80156106c95780601f1061069e576101008083540402835291602001916106c9565b820191906000526020600020905b8154815290600101906020018083116106ac57829003601f168201915b50505050508152602001600382015481526020016004820160009054906101000a900460ff161515151581525050905080600001518160200151826040015183606001518460800151955095509550955095505091939590929450565b6000604051905090565b600080fd5b600080fd5b6000819050919050565b61074d8161073a565b811461075857600080fd5b50565b60008135905061076a81610744565b92915050565b600080fd5b600080fd5b6000601f19601f8301169050919050565b7f4e487b7100000000000000000000000000000000000000000000000000000000600052604160045260246000fd5b6107c38261077a565b810181811067ffffffffffffffff821117156107e2576107e161078b565b5b80604052505050565b60006107f5610726565b905061080182826107ba565b919050565b600067ffffffffffffffff8211156108215761082061078b565b5b61082a8261077a565b9050602081019050919050565b82818337600083830152505050565b600061085961085484610806565b6107eb565b90508281526020810184848401111561087557610874610775565b5b610880848285610837565b509392505050565b600082601f83011261089d5761089c610770565b5b81356108ad848260208601610846565b91505092915050565b6000806000606084860312156108cf576108ce610730565b5b60006108dd8682870161075b565b935050602084013567ffffffffffffffff8111156108fe576108fd610735565b5b61090a86828701610888565b925050604084013567ffffffffffffffff81111561092b5761092a610735565b5b61093786828701610888565b9150509250925092565b60006020828403121561095757610956610730565b5b60006109658482850161075b565b91505092915050565b6109778161073a565b82525050565b600081519050919050565b600082825260208201905092915050565b60005b838110156109b757808201518184015260208101905061099c565b60008484015250505050565b60006109ce8261097d565b6109d88185610988565b93506109e8818560208601610999565b6109f18161077a565b840191505092915050565b60008115159050919050565b610a11816109fc565b82525050565b600060a082019050610a2c600083018861096e565b8181036020830152610a3e81876109c3565b90508181036040830152610a5281866109c3565b9050610a61606083018561096e565b610a6e6080830184610a08565b9695505050505050565b7f4e487b7100000000000000000000000000000000000000000000000000000000600052602260045260246000fd5b60006002820490506001821680610abf57607f821691505b602082108103610ad257610ad1610a78565b5b50919050565b60008190508160005260206000209050919050565b60006020601f8301049050919050565b600082821b905092915050565b600060088302610b3a7fffffffffffffffffffffffffffffffffffffffffffffffffffffffffffffffff82610afd565b610b448683610afd565b95508019841693508086168417925050509392505050565b6000819050919050565b6000610b81610b7c610b778461073a565b610b5c565b61073a565b9050919050565b6000819050919050565b610b9b83610b66565b610baf610ba782610b88565b848454610b0a565b825550505050565b600090565b610bc4610bb7565b610bcf818484610b92565b505050565b5b81811015610bf357610be8600082610bbc565b600181019050610bd5565b5050565b601f821115610c3857610c0981610ad8565b610c1284610aed565b81016020851015610c21578190505b610c35610c2d85610aed565b830182610bd4565b50505b505050565b600082821c905092915050565b6000610c5b60001984600802610c3d565b1980831691505092915050565b6000610c748383610c4a565b9150826002028217905092915050565b610c8d8261097d565b67ffffffffffffffff811115610ca657610ca561078b565b5b610cb08254610aa7565b610cbb828285610bf7565b600060209050601f831160018114610cee5760008415610cdc578287015190505b610ce68582610c68565b865550610d4e565b601f198416610cfc86610ad8565b60005b82811015610d2457848901518255600182019150602085019450602081019050610cff565b86831015610d415784890151610d3d601f891682610c4a565b8355505b6001600288020188555050505b505050505050565b7f4e487b7100000000000000000000000000000000000000000000000000000000600052601160045260246000fd5b6000610d908261073a565b91507fffffffffffffffffffffffffffffffffffffffffffffffffffffffffffffffff8203610dc257610dc1610d56565b5b600182019050919050565b6000604082019050610de2600083018561096e565b610def6020830184610a08565b939250505056fea2646970667358221220d91761fc8eb4a0df8f29b2cb0b26ba92b01cc3ec86bf76895fcf31f6bdf564e964736f6c63430008130033",
  "linkReferences": {},
  "deployedLinkReferences": {}
}